:1000000016C0D3C02DC071C12BC02AC029C028C0C2
:1000100027C047C025C024C023C022C021C057C06C
:100020005EC069C073C082C079C080C08DC0112419
:100030001FBECFEDCDBF10E0A0E6B0E0E4EAF3E0F4
:1000400002C005900D92A036B107D9F710E0A0E6E6
:10005000B0E001C01D92AC36B107E1F702D0A0C1FB
:10006000CFCFB89A8BB780648BBF85B7816085BFCF
:1000700080B7806880BF85EF8EBD8CE089BD8AB572
:1000800080648ABD8AB582608ABD85B7877E85BF58
:10009000789485B7806285BF889585B78F7D85BF49
:1000A000F8CF1F920F920FB60F9211248F939F9348
:1000B000EF93FF93E0916B00FF27E7FDF095E830A9
:1000C000F10518F4E15FFF4F099410926B0083B7BC
:1000D000816083BF8AB580648ABD8DE72EC083B7F7
:1000E0008E7F83BF8AB58F7B8ABD80B7807F8B6010
:1000F00080BF8CE122C083B7816083BF8AB58064F2
:100100008ABD80B7807F856080BF16C083B78E7F31
:1001100083BF8AB58F7B8ABD82E60FC083B78E7F8F
:1001200083BF8AB58F7B8ABD80EE07C083B78160AD
:1001300083BF8AB580648ABD89E18BBD80916B00E5
:100140008F5F80936B0027C083B78E7F83BF8AB594
:100150008F7B8ABD10926B00809164009091650046
:100160008430910541F0109265001092640080B7D0
:10017000807F80BF11C083E090E090936500809302
:10018000640089B78F7D89BF89B7806489BF80B7D4
:10019000807F8B6080BF1FBCFF91EF919F918F91FB
:1001A0000F900FBE0F901F9018951F920F920FB6D1
:1001B0000F9211242F938F939F93AF93BF9326B3E6
:1001C000247080916A00882309F04AC0222309F430
:1001D00080C080916400909165008230910549F162
:1001E0008230910560F08630910548F483B78E7FA8
:1001F00083BF8AB58F7B8ABD80B7807F80BF81E057
:1002000090E09093650080936400109260001092DB
:100210006100109262001092630089B78F7D89BFE0
:1002200089B7806489BF80B7807F8B6080BF1FBC27
:1002300050C083E090E090936500809364008091CB
:10024000600090916100A0916200B0916300809382
:10025000660090936700A0936800B093690030C077
:100260002223B9F580916400909165000397823054
:10027000910578F18091600090916100A0916200F9
:10028000B09163008C309105A105B1059CF485E027
:1002900090E0909365008093640089B78F7B89BF5D
:1002A00089B7806289BF80B7807F856080BF1FBCAF
:1002B0001BBC0FC082E090E09093650080936400C7
:1002C0001FBC1092600010926100109262001092A8
:1002D000630020936A00BF91AF919F918F912F91FE
:1002E0000F900FBE0F901F9018951F920F920FB690
:1002F0000F9211242F933F934F935F938F939F936C
:10030000AF93BF938091600090916100A0916200D3
:10031000B09163000196A11DB11D80936000909380
:100320006100A0936200B09363002091640030915B
:1003300065002330310539F5209166003091670062
:10034000409168005091690082179307A407B50790
:10035000D4F084E090E0909365008093640089B7C6
:100360008F7B89BF89B7806289BF80B7807F8560B6
:1003700080BF1FBC1BBC10926000109261001092E5
:10038000620010926300BF91AF919F918F915F9136
:100390004F913F912F910F900FBE0F901F90189586
:0403A000F894FFCFFF
:00000001FF
